{
  "address": "0xD50F7d13632ccadCF24fB74676981099fe70D1A7",
  "abi": [
    {
      "anonymous": false,
      "inputs": [
        {
          "indexed": false,
          "internalType": "uint256",
          "name": "_threshold",
          "type": "uint256"
        }
      ],
      "name": "AllocateThresholdUpdated",
      "type": "event"
    },
    {
      "anonymous": false,
      "inputs": [
        {
          "indexed": false,
          "internalType": "address",
          "name": "_strategy",
          "type": "address"
        },
        {
          "indexed": false,
          "internalType": "uint256",
          "name": "_amount",
          "type": "uint256"
        }
      ],
      "name": "AssetAllocated",
      "type": "event"
    },
    {
      "anonymous": false,
      "inputs": [],
      "name": "CapitalPaused",
      "type": "event"
    },
    {
      "anonymous": false,
      "inputs": [],
      "name": "CapitalUnpaused",
      "type": "event"
    },
    {
      "anonymous": false,
      "inputs": [
        {
          "indexed": false,
          "internalType": "address",
          "name": "_strategy",
          "type": "address"
        }
      ],
      "name": "DefaultStrategyUpdated",
      "type": "event"
    },
    {
      "anonymous": false,
      "inputs": [
        {
          "indexed": true,
          "internalType": "address",
          "name": "previousGovernor",
          "type": "address"
        },
        {
          "indexed": true,
          "internalType": "address",
          "name": "newGovernor",
          "type": "address"
        }
      ],
      "name": "GovernorshipTransferred",
      "type": "event"
    },
    {
      "anonymous": false,
      "inputs": [
        {
          "indexed": false,
          "internalType": "uint256",
          "name": "maxSupplyDiff",
          "type": "uint256"
        }
      ],
      "name": "MaxSupplyDiffChanged",
      "type": "event"
    },
    {
      "anonymous": false,
      "inputs": [
        {
          "indexed": false,
          "internalType": "address",
          "name": "_addr",
          "type": "address"
        },
        {
          "indexed": false,
          "internalType": "uint256",
          "name": "_value",
          "type": "uint256"
        }
      ],
      "name": "Mint",
      "type": "event"
    },
    {
      "anonymous": false,
      "inputs": [
        {
          "indexed": true,
          "internalType": "address",
          "name": "previousGovernor",
          "type": "address"
        },
        {
          "indexed": true,
          "internalType": "address",
          "name": "newGovernor",
          "type": "address"
        }
      ],
      "name": "PendingGovernorshipTransfer",
      "type": "event"
    },
    {
      "anonymous": false,
      "inputs": [],
      "name": "RebasePaused",
      "type": "event"
    },
    {
      "anonymous": false,
      "inputs": [
        {
          "indexed": false,
          "internalType": "uint256",
          "name": "_threshold",
          "type": "uint256"
        }
      ],
      "name": "RebaseThresholdUpdated",
      "type": "event"
    },
    {
      "anonymous": false,
      "inputs": [],
      "name": "RebaseUnpaused",
      "type": "event"
    },
    {
      "anonymous": false,
      "inputs": [
        {
          "indexed": false,
          "internalType": "address",
          "name": "_addr",
          "type": "address"
        },
        {
          "indexed": false,
          "internalType": "uint256",
          "name": "_value",
          "type": "uint256"
        }
      ],
      "name": "Redeem",
      "type": "event"
    },
    {
      "anonymous": false,
      "inputs": [
        {
          "indexed": false,
          "internalType": "uint256",
          "name": "_redeemFeeBps",
          "type": "uint256"
        }
      ],
      "name": "RedeemFeeUpdated",
      "type": "event"
    },
    {
      "anonymous": false,
      "inputs": [
        {
          "indexed": false,
          "internalType": "address",
          "name": "_address",
          "type": "address"
        }
      ],
      "name": "StrategistUpdated",
      "type": "event"
    },
    {
      "anonymous": false,
      "inputs": [
        {
          "indexed": false,
          "internalType": "address",
          "name": "_addr",
          "type": "address"
        }
      ],
      "name": "StrategyApproved",
      "type": "event"
    },
    {
      "anonymous": false,
      "inputs": [
        {
          "indexed": false,
          "internalType": "address",
          "name": "_addr",
          "type": "address"
        }
      ],
      "name": "StrategyRemoved",
      "type": "event"
    },
    {
      "anonymous": false,
      "inputs": [
        {
          "indexed": false,
          "internalType": "address",
          "name": "_address",
          "type": "address"
        }
      ],
      "name": "TrusteeAddressChanged",
      "type": "event"
    },
    {
      "anonymous": false,
      "inputs": [
        {
          "indexed": false,
          "internalType": "uint256",
          "name": "_basis",
          "type": "uint256"
        }
      ],
      "name": "TrusteeFeeBpsChanged",
      "type": "event"
    },
    {
      "anonymous": false,
      "inputs": [
        {
          "indexed": false,
          "internalType": "uint256",
          "name": "_vaultBuffer",
          "type": "uint256"
        }
      ],
      "name": "VaultBufferUpdated",
      "type": "event"
    },
    {
      "anonymous": false,
      "inputs": [
        {
          "indexed": false,
          "internalType": "address",
          "name": "_to",
          "type": "address"
        },
        {
          "indexed": false,
          "internalType": "uint256",
          "name": "_yield",
          "type": "uint256"
        },
        {
          "indexed": false,
          "internalType": "uint256",
          "name": "_fee",
          "type": "uint256"
        }
      ],
      "name": "YieldDistribution",
      "type": "event"
    },
    {
      "stateMutability": "payable",
      "type": "fallback"
    },
    {
      "inputs": [],
      "name": "allocate",
      "outputs": [],
      "stateMutability": "nonpayable",
      "type": "function"
    },
    {
      "inputs": [],
      "name": "autoAllocateThreshold",
      "outputs": [
        {
          "internalType": "uint256",
          "name": "",
          "type": "uint256"
        }
      ],
      "stateMutability": "view",
      "type": "function"
    },
    {
      "inputs": [],
      "name": "capitalPaused",
      "outputs": [
        {
          "internalType": "bool",
          "name": "",
          "type": "bool"
        }
      ],
      "stateMutability": "view",
      "type": "function"
    },
    {
      "inputs": [],
      "name": "checkBalance",
      "outputs": [
        {
          "internalType": "uint256",
          "name": "",
          "type": "uint256"
        }
      ],
      "stateMutability": "view",
      "type": "function"
    },
    {
      "inputs": [],
      "name": "claimGovernance",
      "outputs": [],
      "stateMutability": "nonpayable",
      "type": "function"
    },
    {
      "inputs": [],
      "name": "defaultStrategy",
      "outputs": [
        {
          "internalType": "contract IStrategy",
          "name": "",
          "type": "address"
        }
      ],
      "stateMutability": "view",
      "type": "function"
    },
    {
      "inputs": [],
      "name": "getAllStrategies",
      "outputs": [
        {
          "internalType": "address[]",
          "name": "",
          "type": "address[]"
        }
      ],
      "stateMutability": "view",
      "type": "function"
    },
    {
      "inputs": [],
      "name": "getStrategyCount",
      "outputs": [
        {
          "internalType": "uint256",
          "name": "",
          "type": "uint256"
        }
      ],
      "stateMutability": "view",
      "type": "function"
    },
    {
      "inputs": [],
      "name": "governor",
      "outputs": [
        {
          "internalType": "address",
          "name": "",
          "type": "address"
        }
      ],
      "stateMutability": "view",
      "type": "function"
    },
    {
      "inputs": [],
      "name": "isGovernor",
      "outputs": [
        {
          "internalType": "bool",
          "name": "",
          "type": "bool"
        }
      ],
      "stateMutability": "view",
      "type": "function"
    },
    {
      "inputs": [],
      "name": "maxSupplyDiff",
      "outputs": [
        {
          "internalType": "uint256",
          "name": "",
          "type": "uint256"
        }
      ],
      "stateMutability": "view",
      "type": "function"
    },
    {
      "inputs": [],
      "name": "mint",
      "outputs": [],
      "stateMutability": "payable",
      "type": "function"
    },
    {
      "inputs": [
        {
          "internalType": "uint256",
          "name": "_amount",
          "type": "uint256"
        }
      ],
      "name": "mint",
      "outputs": [],
      "stateMutability": "nonpayable",
      "type": "function"
    },
    {
      "inputs": [],
      "name": "rebase",
      "outputs": [],
      "stateMutability": "nonpayable",
      "type": "function"
    },
    {
      "inputs": [],
      "name": "rebasePaused",
      "outputs": [
        {
          "internalType": "bool",
          "name": "",
          "type": "bool"
        }
      ],
      "stateMutability": "view",
      "type": "function"
    },
    {
      "inputs": [],
      "name": "rebaseThreshold",
      "outputs": [
        {
          "internalType": "uint256",
          "name": "",
          "type": "uint256"
        }
      ],
      "stateMutability": "view",
      "type": "function"
    },
    {
      "inputs": [
        {
          "internalType": "uint256",
          "name": "_amount",
          "type": "uint256"
        }
      ],
      "name": "redeem",
      "outputs": [],
      "stateMutability": "nonpayable",
      "type": "function"
    },
    {
      "inputs": [],
      "name": "redeemAll",
      "outputs": [],
      "stateMutability": "nonpayable",
      "type": "function"
    },
    {
      "inputs": [],
      "name": "redeemFeeBps",
      "outputs": [
        {
          "internalType": "uint256",
          "name": "",
          "type": "uint256"
        }
      ],
      "stateMutability": "view",
      "type": "function"
    },
    {
      "inputs": [
        {
          "internalType": "address",
          "name": "newImpl",
          "type": "address"
        }
      ],
      "name": "setAdminImpl",
      "outputs": [],
      "stateMutability": "nonpayable",
      "type": "function"
    },
    {
      "inputs": [],
      "name": "strategistAddr",
      "outputs": [
        {
          "internalType": "address",
          "name": "",
          "type": "address"
        }
      ],
      "stateMutability": "view",
      "type": "function"
    },
    {
      "inputs": [],
      "name": "totalValue",
      "outputs": [
        {
          "internalType": "uint256",
          "name": "value",
          "type": "uint256"
        }
      ],
      "stateMutability": "view",
      "type": "function"
    },
    {
      "inputs": [
        {
          "internalType": "address",
          "name": "_newGovernor",
          "type": "address"
        }
      ],
      "name": "transferGovernance",
      "outputs": [],
      "stateMutability": "nonpayable",
      "type": "function"
    },
    {
      "inputs": [],
      "name": "trusteeAddress",
      "outputs": [
        {
          "internalType": "address",
          "name": "",
          "type": "address"
        }
      ],
      "stateMutability": "view",
      "type": "function"
    },
    {
      "inputs": [],
      "name": "trusteeFeeBps",
      "outputs": [
        {
          "internalType": "uint256",
          "name": "",
          "type": "uint256"
        }
      ],
      "stateMutability": "view",
      "type": "function"
    },
    {
      "inputs": [],
      "name": "vaultBuffer",
      "outputs": [
        {
          "internalType": "uint256",
          "name": "",
          "type": "uint256"
        }
      ],
      "stateMutability": "view",
      "type": "function"
    },
    {
      "inputs": [],
      "name": "wETH",
      "outputs": [
        {
          "internalType": "contract IERC20",
          "name": "",
          "type": "address"
        }
      ],
      "stateMutability": "view",
      "type": "function"
    }
  ],
  "transactionHash": "0xb4419faef949db069d9d1c111e7d0b57401c3e9e6200cfb9df556bbff3e017bd",
  "args": [],
  "solcInputHash": "3fa5a7c14949fbead5c7fe0b63138ae9",
  "bytecode": "0x60806040526035805461ffff1916610100179055603c80546001600160a01b031916905534801561002f57600080fd5b5061004633600080516020611fc383398151915255565b600080516020611fc3833981519152546040516001600160a01b03909116906000907fc7c0c772add429241571afb3805861fb3cfa2af374534088b76cdb4325a87e9a908290a3611f278061009c6000396000f3fe60806040526004361061019c5760003560e01c80639fa1826e116100ec578063d38bfff41161008a578063e6cc543211610064578063e6cc543214610444578063f242862114610463578063fac5bb9b14610483578063fc0cfeee146104a35761019c565b8063d38bfff4146103ef578063d4c3eea01461040f578063db006a75146104245761019c565b8063af14052c116100c6578063af14052c1461038e578063c3b28864146103a3578063c71daccb146103c5578063c7af3352146103da5761019c565b80639fa1826e14610343578063a0712d6814610359578063abaa9916146103795761019c565b806331e19cfa1161015957806353ca9f241161013357806353ca9f24146102ce578063570d8e1d146102f85780635d36b190146103185780638e510b521461032d5761019c565b806331e19cfa1461028357806349c1d54d1461029857806352d38e5d146102b85761019c565b806309f6442c146101e25780630c340a241461020b5780631249c58b146102385780631edfe3da14610242578063207134b0146102585780632f4350c21461026e575b7fa2bd3d3cf188a41358c8b401076eb59066b09dec5775650c0de4c55187d17bd9366000803760008036600084545af43d6000803e8080156101dd573d6000f35b3d6000fd5b3480156101ee57600080fd5b506101f860365481565b6040519081526020015b60405180910390f35b34801561021757600080fd5b506102206104c3565b6040516001600160a01b039091168152602001610202565b6102406104e0565b005b34801561024e57600080fd5b506101f860375481565b34801561026457600080fd5b506101f860405481565b34801561027a57600080fd5b506102406106d7565b34801561028f57600080fd5b506034546101f8565b3480156102a457600080fd5b50603f54610220906001600160a01b031681565b3480156102c457600080fd5b506101f860395481565b3480156102da57600080fd5b506035546102e89060ff1681565b6040519015158152602001610202565b34801561030457600080fd5b50603c54610220906001600160a01b031681565b34801561032457600080fd5b506102406107b7565b34801561033957600080fd5b506101f8603e5481565b34801561034f57600080fd5b506101f860385481565b34801561036557600080fd5b50610240610374366004611c97565b61085d565b34801561038557600080fd5b506102406109fb565b34801561039a57600080fd5b50610240610a61565b3480156103af57600080fd5b506103b8610a9f565b6040516102029190611cfe565b3480156103d157600080fd5b506101f8610b01565b3480156103e657600080fd5b506102e8610b0b565b3480156103fb57600080fd5b5061024061040a366004611c4c565b610b3c565b34801561041b57600080fd5b506101f8610c10565b34801561043057600080fd5b5061024061043f366004611c97565b610c1a565b34801561045057600080fd5b506035546102e890610100900460ff1681565b34801561046f57600080fd5b50603b54610220906001600160a01b031681565b34801561048f57600080fd5b50603d54610220906001600160a01b031681565b3480156104af57600080fd5b506102406104be366004611c4c565b610c81565b60006104db600080516020611ed28339815191525490565b905090565b603554610100900460ff16156105115760405162461bcd60e51b815260040161050890611d7e565b60405180910390fd5b600080516020611eb2833981519152805460028114156105435760405162461bcd60e51b815260040161050890611da6565b60028255600034116105975760405162461bcd60e51b815260206004820152601d60248201527f416d6f756e74206d7573742062652067726561746572207468616e20300000006044820152606401610508565b7f0f6798a560793a54c3bcfe86a93cde1e73087d944c0ea20544137d412139688533346040516105c8929190611ce5565b60405180910390a160395434101580156105e5575060355460ff16155b156105f2576105f2610d53565b603b60009054906101000a90046001600160a01b03166001600160a01b031663d0e30db0346040518263ffffffff1660e01b81526004016000604051808303818588803b15801561064257600080fd5b505af1158015610656573d6000803e3d6000fd5b5050603a546040516340c10f1960e01b81526001600160a01b0390911693506340c10f19925061068d915033903490600401611ce5565b600060405180830381600087803b1580156106a757600080fd5b505af11580156106bb573d6000803e3d6000fd5b5050505060385434106106d0576106d0611084565b5060019055565b603554610100900460ff16156106ff5760405162461bcd60e51b815260040161050890611d7e565b600080516020611eb2833981519152805460028114156107315760405162461bcd60e51b815260040161050890611da6565b60028255603a546040516370a0823160e01b81523360048201526106d0916001600160a01b0316906370a082319060240160206040518083038186803b15801561077a57600080fd5b505afa15801561078e573d6000803e3d6000fd5b505050506040513d601f19601f820116820180604052508101906107b29190611cb0565b6112a4565b7f44c4d30b2eaad5130ad70c3ba6972730566f3e6359ab83e800d905c61b1c51db546001600160a01b0316336001600160a01b0316146108525760405162461bcd60e51b815260206004820152603060248201527f4f6e6c79207468652070656e64696e6720476f7665726e6f722063616e20636f60448201526f6d706c6574652074686520636c61696d60801b6064820152608401610508565b61085b33611581565b565b603554610100900460ff16156108855760405162461bcd60e51b815260040161050890611d7e565b600080516020611eb2833981519152805460028114156108b75760405162461bcd60e51b815260040161050890611da6565b600282556000831161090b5760405162461bcd60e51b815260206004820152601d60248201527f416d6f756e74206d7573742062652067726561746572207468616e20300000006044820152606401610508565b7f0f6798a560793a54c3bcfe86a93cde1e73087d944c0ea20544137d4121396885338460405161093c929190611ce5565b60405180910390a16039548310158015610959575060355460ff16155b1561096657610966610d53565b603b5461097e906001600160a01b0316333086611645565b603a546040516340c10f1960e01b81526001600160a01b03909116906340c10f19906109b09033908790600401611ce5565b600060405180830381600087803b1580156109ca57600080fd5b505af11580156109de573d6000803e3d6000fd5b5050505060385483106109f3576109f3611084565b506001905550565b603554610100900460ff1615610a235760405162461bcd60e51b815260040161050890611d7e565b600080516020611eb283398151915280546002811415610a555760405162461bcd60e51b815260040161050890611da6565b600282556106d0611084565b600080516020611eb283398151915280546002811415610a935760405162461bcd60e51b815260040161050890611da6565b600282556106d0610d53565b60606034805480602002602001604051908101604052809291908181526020018280548015610af757602002820191906000526020600020905b81546001600160a01b03168152600190910190602001808311610ad9575b5050505050905090565b60006104db6116b0565b6000610b23600080516020611ed28339815191525490565b6001600160a01b0316336001600160a01b031614905090565b610b44610b0b565b610b905760405162461bcd60e51b815260206004820152601a60248201527f43616c6c6572206973206e6f742074686520476f7665726e6f720000000000006044820152606401610508565b610bb8817f44c4d30b2eaad5130ad70c3ba6972730566f3e6359ab83e800d905c61b1c51db55565b806001600160a01b0316610bd8600080516020611ed28339815191525490565b6001600160a01b03167fa39cc5eb22d0f34d8beaefee8a3f17cc229c1a1d1ef87a5ad47313487b1c4f0d60405160405180910390a350565b60006104db611800565b603554610100900460ff1615610c425760405162461bcd60e51b815260040161050890611d7e565b600080516020611eb283398151915280546002811415610c745760405162461bcd60e51b815260040161050890611da6565b600282556109f3836112a4565b610c89610b0b565b610cd55760405162461bcd60e51b815260206004820152601a60248201527f43616c6c6572206973206e6f742074686520476f7665726e6f720000000000006044820152606401610508565b803b610d2f5760405162461bcd60e51b8152602060048201526024808201527f6e657720696d706c656d656e746174696f6e206973206e6f74206120636f6e746044820152631c9858dd60e21b6064820152608401610508565b7fa2bd3d3cf188a41358c8b401076eb59066b09dec5775650c0de4c55187d17bd955565b60355460ff1615610d985760405162461bcd60e51b815260206004820152600f60248201526e149958985cda5b99c81c185d5cd959608a1b6044820152606401610508565b603a54604080516318160ddd60e01b815290516000926001600160a01b0316916318160ddd916004808301926020929190829003018186803b158015610ddd57600080fd5b505afa158015610df1573d6000803e3d6000fd5b505050506040513d601f19601f82011682018060405250810190610e159190611cb0565b905080610e1f5750565b6000610e29611800565b603f549091506001600160a01b03168015801590610e4657508282115b15610f90576000610e57838561181b565b90506000610e7c612710610e766040548561182e90919063ffffffff16565b9061183a565b9050808211610ed85760405162461bcd60e51b815260206004820152602260248201527f466565206d757374206e6f742062652067726561746572207468616e207969656044820152611b1960f21b6064820152608401610508565b8015610f4357603a546040516340c10f1960e01b81526001600160a01b03909116906340c10f1990610f109086908590600401611ce5565b600060405180830381600087803b158015610f2a57600080fd5b505af1158015610f3e573d6000803e3d6000fd5b505050505b604080516001600160a01b0385168152602081018490529081018290527f09516ecf4a8a86e59780a9befc6dee948bc9e60a36e3be68d31ea817ee8d2c809060600160405180910390a150505b603a60009054906101000a90046001600160a01b03166001600160a01b03166318160ddd6040518163ffffffff1660e01b815260040160206040518083038186803b158015610fde57600080fd5b505afa158015610ff2573d6000803e3d6000fd5b505050506040513d601f19601f820116820180604052508101906110169190611cb0565b92508282111561107f57603a546040516339a7919f60e01b8152600481018490526001600160a01b03909116906339a7919f90602401600060405180830381600087803b15801561106657600080fd5b505af115801561107a573d6000803e3d6000fd5b505050505b505050565b600061108e611846565b9050806110985750565b60006110a26118c2565b905060006110b0838361191e565b90506000826110d6576037546110cf90670de0b6b3a76400009061181b565b9050611119565b6110ef84610e768460375461182e90919063ffffffff16565b905080670de0b6b3a76400001115611113576110cf670de0b6b3a76400008261181b565b50505050565b806111245750505050565b603b546040516370a0823160e01b81523060048201526000916001600160a01b0316906370a082319060240160206040518083038186803b15801561116857600080fd5b505afa15801561117c573d6000803e3d6000fd5b505050506040513d601f19601f820116820180604052508101906111a09190611cb0565b905060006111ae828461192a565b90506000811180156111ca5750603d546001600160a01b031615155b1561129c57603d54603b546111ec916001600160a01b0391821691168361193f565b603d54603b546040516311f9fbc960e21b81526001600160a01b03928316926347e7ef2492611222929116908590600401611ce5565b600060405180830381600087803b15801561123c57600080fd5b505af1158015611250573d6000803e3d6000fd5b5050603d546040517f60a87e0712ebfb325304641a2056198edc17feb06aeac8f8a57a1087a859db8d935061129392506001600160a01b03909116908490611ce5565b60405180910390a15b505050505050565b7f222838db2794d11532d940e8dec38ae307ed0b63cd97c233322e221f998767a633826040516112d5929190611ce5565b60405180910390a1603a546040516370a0823160e01b815233600482015282916001600160a01b0316906370a082319060240160206040518083038186803b15801561132057600080fd5b505afa158015611334573d6000803e3d6000fd5b505050506040513d601f19601f820116820180604052508101906113589190611cb0565b101561139d5760405162461bcd60e51b8152602060048201526014602482015273496e73756666696369656e742062616c616e636560601b6044820152606401610508565b603b546040516370a0823160e01b81523060048201526000916001600160a01b0316906370a082319060240160206040518083038186803b1580156113e157600080fd5b505afa1580156113f5573d6000803e3d6000fd5b505050506040513d601f19601f820116820180604052508101906114199190611cb0565b905081811061143e57603b54611439906001600160a01b0316338461193f565b6114f7565b603d546001600160a01b03166114885760405162461bcd60e51b815260206004820152600f60248201526e2634b8bab4b234ba3c9032b93937b960891b6044820152606401610508565b603d54603b54604051636ce5768960e11b81523360048201526001600160a01b0391821660248201526044810185905291169063d9caed1290606401600060405180830381600087803b1580156114de57600080fd5b505af11580156114f2573d6000803e3d6000fd5b505050505b603a54604051632770a7eb60e21b81526001600160a01b0390911690639dc29fac906115299033908690600401611ce5565b600060405180830381600087803b15801561154357600080fd5b505af1158015611557573d6000803e3d6000fd5b505050506039548210158015611570575060355460ff16155b1561157d5761157d610d53565b5050565b6001600160a01b0381166115d75760405162461bcd60e51b815260206004820152601a60248201527f4e657720476f7665726e6f7220697320616464726573732830290000000000006044820152606401610508565b806001600160a01b03166115f7600080516020611ed28339815191525490565b6001600160a01b03167fc7c0c772add429241571afb3805861fb3cfa2af374534088b76cdb4325a87e9a60405160405180910390a361164281600080516020611ed283398151915255565b50565b6040516001600160a01b03808516602483015283166044820152606481018290526111139085906323b872dd60e01b906084015b60408051601f198184030181529190526020810180516001600160e01b03166001600160e01b03199093169290921790915261195e565b603b546040516370a0823160e01b81523060048201526000916001600160a01b0316906370a082319060240160206040518083038186803b1580156116f457600080fd5b505afa158015611708573d6000803e3d6000fd5b505050506040513d601f19601f8201168201806040525081019061172c9190611cb0565b905060005b6034548110156117fc5760006034828154811061175057611750611e9b565b600091825260209091200154603b54604051632fa8a91360e11b81526001600160a01b039182166004820152911691506117e6908290635f5152269060240160206040518083038186803b1580156117a757600080fd5b505afa1580156117bb573d6000803e3d6000fd5b505050506040513d601f19601f820116820180604052508101906117df9190611cb0565b849061191e565b92505080806117f490611e6a565b915050611731565b5090565b60006104db61180d6118c2565b611815611846565b9061191e565b60006118278284611e27565b9392505050565b60006118278284611e08565b60006118278284611de6565b603b546040516370a0823160e01b81523060048201526000916001600160a01b0316906370a082319060240160206040518083038186803b15801561188a57600080fd5b505afa15801561189e573d6000803e3d6000fd5b505050506040513d601f19601f820116820180604052508101906104db9190611cb0565b6000805b6034548110156117fc5761190a611903603483815481106118e9576118e9611e9b565b6000918252602090912001546001600160a01b0316611a30565b839061191e565b91508061191681611e6a565b9150506118c6565b60006118278284611dce565b60006118278383670de0b6b3a7640000611ab2565b61107f8363a9059cbb60e01b8484604051602401611679929190611ce5565b60006119b3826040518060400160405280602081526020017f5361666545524332303a206c6f772d6c6576656c2063616c6c206661696c6564815250856001600160a01b0316611ad49092919063ffffffff16565b80519091501561107f57808060200190518101906119d19190611c75565b61107f5760405162461bcd60e51b815260206004820152602a60248201527f5361666545524332303a204552433230206f7065726174696f6e20646964206e6044820152691bdd081cdd58d8d9595960b21b6064820152608401610508565b603b54604051632fa8a91360e11b81526001600160a01b039182166004820152600091839190821690635f5152269060240160206040518083038186803b158015611a7a57600080fd5b505afa158015611a8e573d6000803e3d6000fd5b505050506040513d601f19601f820116820180604052508101906118279190611cb0565b600080611abf858561182e565b9050611acb818461183a565b95945050505050565b6060611ae38484600085611aeb565b949350505050565b606082471015611b4c5760405162461bcd60e51b815260206004820152602660248201527f416464726573733a20696e73756666696369656e742062616c616e636520666f6044820152651c8818d85b1b60d21b6064820152608401610508565b843b611b9a5760405162461bcd60e51b815260206004820152601d60248201527f416464726573733a2063616c6c20746f206e6f6e2d636f6e74726163740000006044820152606401610508565b600080866001600160a01b03168587604051611bb69190611cc9565b60006040518083038185875af1925050503d8060008114611bf3576040519150601f19603f3d011682016040523d82523d6000602084013e611bf8565b606091505b5091509150611c08828286611c13565b979650505050505050565b60608315611c22575081611827565b825115611c325782518084602001fd5b8160405162461bcd60e51b81526004016105089190611d4b565b600060208284031215611c5e57600080fd5b81356001600160a01b038116811461182757600080fd5b600060208284031215611c8757600080fd5b8151801515811461182757600080fd5b600060208284031215611ca957600080fd5b5035919050565b600060208284031215611cc257600080fd5b5051919050565b60008251611cdb818460208701611e3e565b9190910192915050565b6001600160a01b03929092168252602082015260400190565b6020808252825182820181905260009190848201906040850190845b81811015611d3f5783516001600160a01b031683529284019291840191600101611d1a565b50909695505050505050565b6020815260008251806020840152611d6a816040850160208701611e3e565b601f01601f19169190910160400192915050565b6020808252600e908201526d10d85c1a5d185b081c185d5cd95960921b604082015260600190565b6020808252600e908201526d1499595b9d1c985b9d0818d85b1b60921b604082015260600190565b60008219821115611de157611de1611e85565b500190565b600082611e0357634e487b7160e01b600052601260045260246000fd5b500490565b6000816000190483118215151615611e2257611e22611e85565b500290565b600082821015611e3957611e39611e85565b500390565b60005b83811015611e59578181015183820152602001611e41565b838111156111135750506000910152565b6000600019821415611e7e57611e7e611e85565b5060010190565b634e487b7160e01b600052601160045260246000fd5b634e487b7160e01b600052603260045260246000fdfe53bf423e48ed90e97d02ab0ebab13b2a235a6bfbe9c321847d5c175333ac45357bea13895fa79d2831e0a9e28edede30099005a50d652d8957cf8a607ee6ca4aa26469706673582212209ecffdb52ddff4ba0fd317caf881088543010d47eb27cfbcf795fb1475de8cf264736f6c634300080700337bea13895fa79d2831e0a9e28edede30099005a50d652d8957cf8a607ee6ca4a",
  "devdoc": {
    "kind": "dev",
    "methods": {
      "allocate()": {
        "details": "Allocate unallocated funds on Vault to strategies.*"
      },
      "checkBalance()": {
        "returns": {
          "_0": "uint256 Balance of asset in decimals of asset"
        }
      },
      "claimGovernance()": {
        "details": "Claim Governance of the contract to a new account (`newGovernor`). Can only be called by the new Governor."
      },
      "getAllStrategies()": {
        "details": "Return the array of all strategies"
      },
      "getStrategyCount()": {
        "details": "Return the number of strategies active on the Vault."
      },
      "governor()": {
        "details": "Returns the address of the current Governor."
      },
      "isGovernor()": {
        "details": "Returns true if the caller is the current Governor."
      },
      "mint()": {
        "details": "Deposit ETH and mint OETH."
      },
      "mint(uint256)": {
        "details": "Deposit WETH and mint OETH."
      },
      "rebase()": {
        "details": "Calculate the total value of assets held by the Vault and all      strategies and update the supply of OETH."
      },
      "redeem(uint256)": {
        "details": "Withdraw wETH and burn OETH.",
        "params": {
          "_amount": "Amount of OETH to burn"
        }
      },
      "setAdminImpl(address)": {
        "details": "set the implementation for the admin, this needs to be in a base class else we cannot set it",
        "params": {
          "newImpl": "address of the implementation"
        }
      },
      "totalValue()": {
        "details": "Determine the total value of assets held by the vault and its         strategies.",
        "returns": {
          "value": "Total value in ETH (1e18)"
        }
      },
      "transferGovernance(address)": {
        "details": "Transfers Governance of the contract to a new account (`newGovernor`). Can only be called by the current Governor. Must be claimed for this to complete",
        "params": {
          "_newGovernor": "Address of the new Governor"
        }
      }
    },
    "version": 1
  },
  "userdoc": {
    "kind": "user",
    "methods": {
      "allocate()": {
        "notice": "Allocate unallocated funds on Vault to strategies."
      },
      "checkBalance()": {
        "notice": "Get the balance of an asset held in Vault and all strategies."
      },
      "redeemAll()": {
        "notice": "Withdraw wETH and burn all OETH."
      }
    },
    "version": 1
  },
  "storageLayout": {
    "storage": [
      {
        "astId": 24492,
        "contract": "contracts/vault/VaultCore.sol:VaultCore",
        "label": "initialized",
        "offset": 0,
        "slot": "0",
        "type": "t_bool"
      },
      {
        "astId": 24495,
        "contract": "contracts/vault/VaultCore.sol:VaultCore",
        "label": "initializing",
        "offset": 1,
        "slot": "0",
        "type": "t_bool"
      },
      {
        "astId": 24535,
        "contract": "contracts/vault/VaultCore.sol:VaultCore",
        "label": "______gap",
        "offset": 0,
        "slot": "1",
        "type": "t_array(t_uint256)50_storage"
      },
      {
        "astId": 27601,
        "contract": "contracts/vault/VaultCore.sol:VaultCore",
        "label": "strategies",
        "offset": 0,
        "slot": "51",
        "type": "t_mapping(t_address,t_struct(Strategy)27596_storage)"
      },
      {
        "astId": 27604,
        "contract": "contracts/vault/VaultCore.sol:VaultCore",
        "label": "allStrategies",
        "offset": 0,
        "slot": "52",
        "type": "t_array(t_address)dyn_storage"
      },
      {
        "astId": 27607,
        "contract": "contracts/vault/VaultCore.sol:VaultCore",
        "label": "rebasePaused",
        "offset": 0,
        "slot": "53",
        "type": "t_bool"
      },
      {
        "astId": 27610,
        "contract": "contracts/vault/VaultCore.sol:VaultCore",
        "label": "capitalPaused",
        "offset": 1,
        "slot": "53",
        "type": "t_bool"
      },
      {
        "astId": 27612,
        "contract": "contracts/vault/VaultCore.sol:VaultCore",
        "label": "redeemFeeBps",
        "offset": 0,
        "slot": "54",
        "type": "t_uint256"
      },
      {
        "astId": 27614,
        "contract": "contracts/vault/VaultCore.sol:VaultCore",
        "label": "vaultBuffer",
        "offset": 0,
        "slot": "55",
        "type": "t_uint256"
      },
      {
        "astId": 27616,
        "contract": "contracts/vault/VaultCore.sol:VaultCore",
        "label": "autoAllocateThreshold",
        "offset": 0,
        "slot": "56",
        "type": "t_uint256"
      },
      {
        "astId": 27618,
        "contract": "contracts/vault/VaultCore.sol:VaultCore",
        "label": "rebaseThreshold",
        "offset": 0,
        "slot": "57",
        "type": "t_uint256"
      },
      {
        "astId": 27621,
        "contract": "contracts/vault/VaultCore.sol:VaultCore",
        "label": "oETH",
        "offset": 0,
        "slot": "58",
        "type": "t_contract(OETH)23133"
      },
      {
        "astId": 27624,
        "contract": "contracts/vault/VaultCore.sol:VaultCore",
        "label": "wETH",
        "offset": 0,
        "slot": "59",
        "type": "t_contract(IERC20)623"
      },
      {
        "astId": 27633,
        "contract": "contracts/vault/VaultCore.sol:VaultCore",
        "label": "strategistAddr",
        "offset": 0,
        "slot": "60",
        "type": "t_address"
      },
      {
        "astId": 27636,
        "contract": "contracts/vault/VaultCore.sol:VaultCore",
        "label": "defaultStrategy",
        "offset": 0,
        "slot": "61",
        "type": "t_contract(IStrategy)5592"
      },
      {
        "astId": 27638,
        "contract": "contracts/vault/VaultCore.sol:VaultCore",
        "label": "maxSupplyDiff",
        "offset": 0,
        "slot": "62",
        "type": "t_uint256"
      },
      {
        "astId": 27640,
        "contract": "contracts/vault/VaultCore.sol:VaultCore",
        "label": "trusteeAddress",
        "offset": 0,
        "slot": "63",
        "type": "t_address"
      },
      {
        "astId": 27642,
        "contract": "contracts/vault/VaultCore.sol:VaultCore",
        "label": "trusteeFeeBps",
        "offset": 0,
        "slot": "64",
        "type": "t_uint256"
      }
    ],
    "types": {
      "t_address": {
        "encoding": "inplace",
        "label": "address",
        "numberOfBytes": "20"
      },
      "t_array(t_address)dyn_storage": {
        "base": "t_address",
        "encoding": "dynamic_array",
        "label": "address[]",
        "numberOfBytes": "32"
      },
      "t_array(t_uint256)50_storage": {
        "base": "t_uint256",
        "encoding": "inplace",
        "label": "uint256[50]",
        "numberOfBytes": "1600"
      },
      "t_bool": {
        "encoding": "inplace",
        "label": "bool",
        "numberOfBytes": "1"
      },
      "t_contract(IERC20)623": {
        "encoding": "inplace",
        "label": "contract IERC20",
        "numberOfBytes": "20"
      },
      "t_contract(IStrategy)5592": {
        "encoding": "inplace",
        "label": "contract IStrategy",
        "numberOfBytes": "20"
      },
      "t_contract(OETH)23133": {
        "encoding": "inplace",
        "label": "contract OETH",
        "numberOfBytes": "20"
      },
      "t_mapping(t_address,t_struct(Strategy)27596_storage)": {
        "encoding": "mapping",
        "key": "t_address",
        "label": "mapping(address => struct VaultStorage.Strategy)",
        "numberOfBytes": "32",
        "value": "t_struct(Strategy)27596_storage"
      },
      "t_struct(Strategy)27596_storage": {
        "encoding": "inplace",
        "label": "struct VaultStorage.Strategy",
        "members": [
          {
            "astId": 27593,
            "contract": "contracts/vault/VaultCore.sol:VaultCore",
            "label": "isSupported",
            "offset": 0,
            "slot": "0",
            "type": "t_bool"
          },
          {
            "astId": 27595,
            "contract": "contracts/vault/VaultCore.sol:VaultCore",
            "label": "_deprecated",
            "offset": 0,
            "slot": "1",
            "type": "t_uint256"
          }
        ],
        "numberOfBytes": "64"
      },
      "t_uint256": {
        "encoding": "inplace",
        "label": "uint256",
        "numberOfBytes": "32"
      }
    }
  }
}