{
  "address": "0x8A42E623b04258A006E455ed2244e490d492f255",
  "abi": [
    {
      "anonymous": false,
      "inputs": [
        {
          "indexed": false,
          "internalType": "uint256",
          "name": "_threshold",
          "type": "uint256"
        }
      ],
      "name": "AllocateThresholdUpdated",
      "type": "event"
    },
    {
      "anonymous": false,
      "inputs": [
        {
          "indexed": false,
          "internalType": "address",
          "name": "_strategy",
          "type": "address"
        },
        {
          "indexed": false,
          "internalType": "uint256",
          "name": "_amount",
          "type": "uint256"
        }
      ],
      "name": "AssetAllocated",
      "type": "event"
    },
    {
      "anonymous": false,
      "inputs": [],
      "name": "CapitalPaused",
      "type": "event"
    },
    {
      "anonymous": false,
      "inputs": [],
      "name": "CapitalUnpaused",
      "type": "event"
    },
    {
      "anonymous": false,
      "inputs": [
        {
          "indexed": false,
          "internalType": "address",
          "name": "_strategy",
          "type": "address"
        }
      ],
      "name": "DefaultStrategyUpdated",
      "type": "event"
    },
    {
      "anonymous": false,
      "inputs": [
        {
          "indexed": true,
          "internalType": "address",
          "name": "previousGovernor",
          "type": "address"
        },
        {
          "indexed": true,
          "internalType": "address",
          "name": "newGovernor",
          "type": "address"
        }
      ],
      "name": "GovernorshipTransferred",
      "type": "event"
    },
    {
      "anonymous": false,
      "inputs": [
        {
          "indexed": false,
          "internalType": "uint256",
          "name": "maxSupplyDiff",
          "type": "uint256"
        }
      ],
      "name": "MaxSupplyDiffChanged",
      "type": "event"
    },
    {
      "anonymous": false,
      "inputs": [
        {
          "indexed": false,
          "internalType": "address",
          "name": "_addr",
          "type": "address"
        },
        {
          "indexed": false,
          "internalType": "uint256",
          "name": "_value",
          "type": "uint256"
        }
      ],
      "name": "Mint",
      "type": "event"
    },
    {
      "anonymous": false,
      "inputs": [
        {
          "indexed": true,
          "internalType": "address",
          "name": "previousGovernor",
          "type": "address"
        },
        {
          "indexed": true,
          "internalType": "address",
          "name": "newGovernor",
          "type": "address"
        }
      ],
      "name": "PendingGovernorshipTransfer",
      "type": "event"
    },
    {
      "anonymous": false,
      "inputs": [],
      "name": "RebasePaused",
      "type": "event"
    },
    {
      "anonymous": false,
      "inputs": [
        {
          "indexed": false,
          "internalType": "uint256",
          "name": "_threshold",
          "type": "uint256"
        }
      ],
      "name": "RebaseThresholdUpdated",
      "type": "event"
    },
    {
      "anonymous": false,
      "inputs": [],
      "name": "RebaseUnpaused",
      "type": "event"
    },
    {
      "anonymous": false,
      "inputs": [
        {
          "indexed": false,
          "internalType": "address",
          "name": "_addr",
          "type": "address"
        },
        {
          "indexed": false,
          "internalType": "uint256",
          "name": "_value",
          "type": "uint256"
        }
      ],
      "name": "Redeem",
      "type": "event"
    },
    {
      "anonymous": false,
      "inputs": [
        {
          "indexed": false,
          "internalType": "uint256",
          "name": "_redeemFeeBps",
          "type": "uint256"
        }
      ],
      "name": "RedeemFeeUpdated",
      "type": "event"
    },
    {
      "anonymous": false,
      "inputs": [
        {
          "indexed": false,
          "internalType": "address",
          "name": "_address",
          "type": "address"
        }
      ],
      "name": "StrategistUpdated",
      "type": "event"
    },
    {
      "anonymous": false,
      "inputs": [
        {
          "indexed": false,
          "internalType": "address",
          "name": "_addr",
          "type": "address"
        }
      ],
      "name": "StrategyApproved",
      "type": "event"
    },
    {
      "anonymous": false,
      "inputs": [
        {
          "indexed": false,
          "internalType": "address",
          "name": "_addr",
          "type": "address"
        }
      ],
      "name": "StrategyRemoved",
      "type": "event"
    },
    {
      "anonymous": false,
      "inputs": [
        {
          "indexed": false,
          "internalType": "address",
          "name": "_address",
          "type": "address"
        }
      ],
      "name": "TrusteeAddressChanged",
      "type": "event"
    },
    {
      "anonymous": false,
      "inputs": [
        {
          "indexed": false,
          "internalType": "uint256",
          "name": "_basis",
          "type": "uint256"
        }
      ],
      "name": "TrusteeFeeBpsChanged",
      "type": "event"
    },
    {
      "anonymous": false,
      "inputs": [
        {
          "indexed": false,
          "internalType": "uint256",
          "name": "_vaultBuffer",
          "type": "uint256"
        }
      ],
      "name": "VaultBufferUpdated",
      "type": "event"
    },
    {
      "anonymous": false,
      "inputs": [
        {
          "indexed": false,
          "internalType": "address",
          "name": "_to",
          "type": "address"
        },
        {
          "indexed": false,
          "internalType": "uint256",
          "name": "_yield",
          "type": "uint256"
        },
        {
          "indexed": false,
          "internalType": "uint256",
          "name": "_fee",
          "type": "uint256"
        }
      ],
      "name": "YieldDistribution",
      "type": "event"
    },
    {
      "inputs": [
        {
          "internalType": "address",
          "name": "_addr",
          "type": "address"
        }
      ],
      "name": "approveStrategy",
      "outputs": [],
      "stateMutability": "nonpayable",
      "type": "function"
    },
    {
      "inputs": [],
      "name": "autoAllocateThreshold",
      "outputs": [
        {
          "internalType": "uint256",
          "name": "",
          "type": "uint256"
        }
      ],
      "stateMutability": "view",
      "type": "function"
    },
    {
      "inputs": [],
      "name": "capitalPaused",
      "outputs": [
        {
          "internalType": "bool",
          "name": "",
          "type": "bool"
        }
      ],
      "stateMutability": "view",
      "type": "function"
    },
    {
      "inputs": [],
      "name": "claimGovernance",
      "outputs": [],
      "stateMutability": "nonpayable",
      "type": "function"
    },
    {
      "inputs": [],
      "name": "defaultStrategy",
      "outputs": [
        {
          "internalType": "contract IStrategy",
          "name": "",
          "type": "address"
        }
      ],
      "stateMutability": "view",
      "type": "function"
    },
    {
      "inputs": [],
      "name": "governor",
      "outputs": [
        {
          "internalType": "address",
          "name": "",
          "type": "address"
        }
      ],
      "stateMutability": "view",
      "type": "function"
    },
    {
      "inputs": [
        {
          "internalType": "address",
          "name": "_oeth",
          "type": "address"
        },
        {
          "internalType": "address",
          "name": "_weth",
          "type": "address"
        }
      ],
      "name": "initialize",
      "outputs": [],
      "stateMutability": "nonpayable",
      "type": "function"
    },
    {
      "inputs": [],
      "name": "isGovernor",
      "outputs": [
        {
          "internalType": "bool",
          "name": "",
          "type": "bool"
        }
      ],
      "stateMutability": "view",
      "type": "function"
    },
    {
      "inputs": [],
      "name": "maxSupplyDiff",
      "outputs": [
        {
          "internalType": "uint256",
          "name": "",
          "type": "uint256"
        }
      ],
      "stateMutability": "view",
      "type": "function"
    },
    {
      "inputs": [],
      "name": "pauseCapital",
      "outputs": [],
      "stateMutability": "nonpayable",
      "type": "function"
    },
    {
      "inputs": [],
      "name": "pauseRebase",
      "outputs": [],
      "stateMutability": "nonpayable",
      "type": "function"
    },
    {
      "inputs": [
        {
          "internalType": "address",
          "name": "_strategyFromAddress",
          "type": "address"
        },
        {
          "internalType": "address",
          "name": "_strategyToAddress",
          "type": "address"
        },
        {
          "internalType": "uint256",
          "name": "_amount",
          "type": "uint256"
        }
      ],
      "name": "reallocate",
      "outputs": [],
      "stateMutability": "nonpayable",
      "type": "function"
    },
    {
      "inputs": [],
      "name": "rebasePaused",
      "outputs": [
        {
          "internalType": "bool",
          "name": "",
          "type": "bool"
        }
      ],
      "stateMutability": "view",
      "type": "function"
    },
    {
      "inputs": [],
      "name": "rebaseThreshold",
      "outputs": [
        {
          "internalType": "uint256",
          "name": "",
          "type": "uint256"
        }
      ],
      "stateMutability": "view",
      "type": "function"
    },
    {
      "inputs": [],
      "name": "redeemFeeBps",
      "outputs": [
        {
          "internalType": "uint256",
          "name": "",
          "type": "uint256"
        }
      ],
      "stateMutability": "view",
      "type": "function"
    },
    {
      "inputs": [
        {
          "internalType": "address",
          "name": "_addr",
          "type": "address"
        }
      ],
      "name": "removeStrategy",
      "outputs": [],
      "stateMutability": "nonpayable",
      "type": "function"
    },
    {
      "inputs": [
        {
          "internalType": "address",
          "name": "newImpl",
          "type": "address"
        }
      ],
      "name": "setAdminImpl",
      "outputs": [],
      "stateMutability": "nonpayable",
      "type": "function"
    },
    {
      "inputs": [
        {
          "internalType": "uint256",
          "name": "_threshold",
          "type": "uint256"
        }
      ],
      "name": "setAutoAllocateThreshold",
      "outputs": [],
      "stateMutability": "nonpayable",
      "type": "function"
    },
    {
      "inputs": [
        {
          "internalType": "address",
          "name": "_strategy",
          "type": "address"
        }
      ],
      "name": "setDefaultStrategy",
      "outputs": [],
      "stateMutability": "nonpayable",
      "type": "function"
    },
    {
      "inputs": [
        {
          "internalType": "uint256",
          "name": "_maxSupplyDiff",
          "type": "uint256"
        }
      ],
      "name": "setMaxSupplyDiff",
      "outputs": [],
      "stateMutability": "nonpayable",
      "type": "function"
    },
    {
      "inputs": [
        {
          "internalType": "uint256",
          "name": "_threshold",
          "type": "uint256"
        }
      ],
      "name": "setRebaseThreshold",
      "outputs": [],
      "stateMutability": "nonpayable",
      "type": "function"
    },
    {
      "inputs": [
        {
          "internalType": "uint256",
          "name": "_redeemFeeBps",
          "type": "uint256"
        }
      ],
      "name": "setRedeemFeeBps",
      "outputs": [],
      "stateMutability": "nonpayable",
      "type": "function"
    },
    {
      "inputs": [
        {
          "internalType": "address",
          "name": "_address",
          "type": "address"
        }
      ],
      "name": "setStrategistAddr",
      "outputs": [],
      "stateMutability": "nonpayable",
      "type": "function"
    },
    {
      "inputs": [
        {
          "internalType": "address",
          "name": "_address",
          "type": "address"
        }
      ],
      "name": "setTrusteeAddress",
      "outputs": [],
      "stateMutability": "nonpayable",
      "type": "function"
    },
    {
      "inputs": [
        {
          "internalType": "uint256",
          "name": "_basis",
          "type": "uint256"
        }
      ],
      "name": "setTrusteeFeeBps",
      "outputs": [],
      "stateMutability": "nonpayable",
      "type": "function"
    },
    {
      "inputs": [
        {
          "internalType": "uint256",
          "name": "_vaultBuffer",
          "type": "uint256"
        }
      ],
      "name": "setVaultBuffer",
      "outputs": [],
      "stateMutability": "nonpayable",
      "type": "function"
    },
    {
      "inputs": [],
      "name": "strategistAddr",
      "outputs": [
        {
          "internalType": "address",
          "name": "",
          "type": "address"
        }
      ],
      "stateMutability": "view",
      "type": "function"
    },
    {
      "inputs": [
        {
          "internalType": "address",
          "name": "_newGovernor",
          "type": "address"
        }
      ],
      "name": "transferGovernance",
      "outputs": [],
      "stateMutability": "nonpayable",
      "type": "function"
    },
    {
      "inputs": [
        {
          "internalType": "address",
          "name": "_asset",
          "type": "address"
        },
        {
          "internalType": "uint256",
          "name": "_amount",
          "type": "uint256"
        }
      ],
      "name": "transferToken",
      "outputs": [],
      "stateMutability": "nonpayable",
      "type": "function"
    },
    {
      "inputs": [],
      "name": "trusteeAddress",
      "outputs": [
        {
          "internalType": "address",
          "name": "",
          "type": "address"
        }
      ],
      "stateMutability": "view",
      "type": "function"
    },
    {
      "inputs": [],
      "name": "trusteeFeeBps",
      "outputs": [
        {
          "internalType": "uint256",
          "name": "",
          "type": "uint256"
        }
      ],
      "stateMutability": "view",
      "type": "function"
    },
    {
      "inputs": [],
      "name": "unpauseCapital",
      "outputs": [],
      "stateMutability": "nonpayable",
      "type": "function"
    },
    {
      "inputs": [],
      "name": "unpauseRebase",
      "outputs": [],
      "stateMutability": "nonpayable",
      "type": "function"
    },
    {
      "inputs": [],
      "name": "vaultBuffer",
      "outputs": [
        {
          "internalType": "uint256",
          "name": "",
          "type": "uint256"
        }
      ],
      "stateMutability": "view",
      "type": "function"
    },
    {
      "inputs": [],
      "name": "wETH",
      "outputs": [
        {
          "internalType": "contract IERC20",
          "name": "",
          "type": "address"
        }
      ],
      "stateMutability": "view",
      "type": "function"
    },
    {
      "inputs": [],
      "name": "withdrawAllFromStrategies",
      "outputs": [],
      "stateMutability": "nonpayable",
      "type": "function"
    },
    {
      "inputs": [
        {
          "internalType": "address",
          "name": "_strategyAddr",
          "type": "address"
        }
      ],
      "name": "withdrawAllFromStrategy",
      "outputs": [],
      "stateMutability": "nonpayable",
      "type": "function"
    }
  ],
  "transactionHash": "0xd47963d4d2e4624dd4c17ea802974bdf43a50bf1104c15eeb29b5cfa89a82053",
  "args": [],
  "solcInputHash": "3fa5a7c14949fbead5c7fe0b63138ae9",
  "bytecode": "0x60806040526035805461ffff1916610100179055603c80546001600160a01b031916905534801561002f57600080fd5b5061004633600080516020611eb483398151915255565b600080516020611eb4833981519152546040516001600160a01b03909116906000907fc7c0c772add429241571afb3805861fb3cfa2af374534088b76cdb4325a87e9a908290a3611e188061009c6000396000f3fe608060405234801561001057600080fd5b50600436106102275760003560e01c8063597c891011610130578063b890ebf6116100b8578063e6cc54321161007c578063e6cc54321461042f578063eb03654b14610441578063f242862114610454578063fac5bb9b14610467578063fc0cfeee1461047a57600080fd5b8063b890ebf6146103f1578063c5f0084114610404578063c7af33521461040c578063c991911214610414578063d38bfff41461041c57600080fd5b80638e510b52116100ff5780638e510b52146103b15780638ec489a2146103ba57806394828ffd146103cd5780639fa1826e146103d5578063b2c9336d146103de57600080fd5b8063597c8910146103705780635d36b19014610383578063663e64ce1461038b578063773540b31461039e57600080fd5b8063308b8c00116101b357806349c1d54d1161018257806349c1d54d1461031157806352d38e5d1461032457806353ca9f241461032d578063570d8e1d1461034a57806357bee9441461035d57600080fd5b8063308b8c00146102d05780633b8ae397146102e35780633dbc911f146102f6578063485cc955146102fe57600080fd5b80631072cbea116101fa5780631072cbea14610285578063175188e8146102985780631edfe3da146102ab578063207134b0146102b45780632da845a8146102bd57600080fd5b806309f49bf51461022c57806309f6442c146102365780630acbda75146102525780630c340a2414610265575b600080fd5b61023461048d565b005b61023f60365481565b6040519081526020015b60405180910390f35b610234610260366004611c37565b6104ef565b61026d61059f565b6040516001600160a01b039091168152602001610249565b610234610293366004611beb565b6105bc565b6102346102a6366004611b61565b61065e565b61023f60375481565b61023f60405481565b6102346102cb366004611b61565b610909565b6102346102de366004611baf565b61097b565b6102346102f1366004611b61565b610b3d565b610234610c7a565b61023461030c366004611b7c565b610cec565b603f5461026d906001600160a01b031681565b61023f60395481565b60355461033a9060ff1681565b6040519015158152602001610249565b603c5461026d906001600160a01b031681565b61023461036b366004611b61565b610eb5565b61023461037e366004611b61565b610fba565b6102346110b6565b610234610399366004611c37565b61115c565b6102346103ac366004611b61565b6111b5565b61023f603e5481565b6102346103c8366004611c37565b611227565b6102346112dc565b61023f60385481565b6102346103ec366004611c37565b61134a565b6102346103ff366004611c37565b6113a3565b6102346113fc565b61033a61146c565b61023461149d565b61023461042a366004611b61565b611571565b60355461033a90610100900460ff1681565b61023461044f366004611c37565b611615565b603b5461026d906001600160a01b031681565b603d5461026d906001600160a01b031681565b610234610488366004611b61565b6116ca565b61049561146c565b6104ba5760405162461bcd60e51b81526004016104b190611c9f565b60405180910390fd5b6035805460ff191690556040517fbc044409505c95b6b851433df96e1beae715c909d8e7c1d6d7ab783300d4e3b990600090a1565b6104f761146c565b6105135760405162461bcd60e51b81526004016104b190611c9f565b6113888111156105655760405162461bcd60e51b815260206004820152601760248201527f62617369732063616e6e6f74206578636565642035302500000000000000000060448201526064016104b1565b6040818155518181527f56287a45051933ea374811b3d5d165033047be5572cac676f7c28b8be4f746c7906020015b60405180910390a150565b60006105b7600080516020611dc38339815191525490565b905090565b6105c461146c565b6105e05760405162461bcd60e51b81526004016104b190611c9f565b603b546001600160a01b038381169116141561063e5760405162461bcd60e51b815260206004820152601760248201527f4f6e6c7920756e737570706f727465642061737365747300000000000000000060448201526064016104b1565b61065a61064961059f565b6001600160a01b038416908361176c565b5050565b61066661146c565b6106825760405162461bcd60e51b81526004016104b190611c9f565b6001600160a01b03811660009081526033602052604090205460ff166106e25760405162461bcd60e51b815260206004820152601560248201527414dd1c985d1959de481b9bdd08185c1c1c9bdd9959605a1b60448201526064016104b1565b603d546001600160a01b03828116911614156107405760405162461bcd60e51b815260206004820152601e60248201527f43616e6e6f742072656d6f76652064656661756c74207374726174656779000060448201526064016104b1565b60345460005b6034548110156107a257826001600160a01b03166034828154811061076d5761076d611dac565b6000918252602090912001546001600160a01b03161415610790578091506107a2565b8061079a81611d65565b915050610746565b5060345481101561065a57603480546107bd90600190611d1e565b815481106107cd576107cd611dac565b600091825260209091200154603480546001600160a01b0390921691839081106107f9576107f9611dac565b9060005260206000200160006101000a8154816001600160a01b0302191690836001600160a01b03160217905550603480548061083857610838611d96565b60008281526020808220830160001990810180546001600160a01b03191690559092019092556001600160a01b03841680835260339091526040808320805460ff19169055805163429c145b60e11b81529051859363853828b6926004808201939182900301818387803b1580156108af57600080fd5b505af11580156108c3573d6000803e3d6000fd5b50506040516001600160a01b03861681527f09a1db4b80c32706328728508c941a6b954f31eb5affd32f236c1fd405f8fea49250602001905060405180910390a1505050565b61091161146c565b61092d5760405162461bcd60e51b81526004016104b190611c9f565b603f80546001600160a01b0319166001600160a01b0383169081179091556040519081527f1e4af5ac389e8cde1bdaa6830881b6c987c62a45cfb3b33d27d805cde3b5775090602001610594565b603c546001600160a01b0316331480610997575061099761146c565b6109b35760405162461bcd60e51b81526004016104b190611cd6565b6001600160a01b03831660009081526033602052604090205460ff16610a135760405162461bcd60e51b8152602060048201526015602482015274496e76616c69642066726f6d20537472617465677960581b60448201526064016104b1565b6001600160a01b03821660009081526033602052604090205460ff16610a715760405162461bcd60e51b8152602060048201526013602482015272496e76616c696420746f20537472617465677960681b60448201526064016104b1565b603b54604051636ce5768960e11b81526001600160a01b038085166004830152918216602482015260448101839052849184919083169063d9caed1290606401600060405180830381600087803b158015610acb57600080fd5b505af1158015610adf573d6000803e3d6000fd5b50505050806001600160a01b031663de5f62686040518163ffffffff1660e01b8152600401600060405180830381600087803b158015610b1e57600080fd5b505af1158015610b32573d6000803e3d6000fd5b505050505050505050565b610b4561146c565b610b615760405162461bcd60e51b81526004016104b190611c9f565b6001600160a01b03811660009081526033602052604090205460ff1615610bca5760405162461bcd60e51b815260206004820152601960248201527f537472617465677920616c726561647920617070726f7665640000000000000060448201526064016104b1565b6040805180820182526001808252600060208084018281526001600160a01b038716808452603383528684209551865460ff19169015151786559051948401949094556034805493840181559091527f46bddb1178e94d7f2892ff5f366840eb658911794f2c3a44c450aa2c505186c190910180546001600160a01b0319168317905591519081527f960dd94cbb79169f09a4e445d58b895df2d9bffa5b31055d0932d801724a20d19101610594565b603c546001600160a01b0316331480610c965750610c9661146c565b610cb25760405162461bcd60e51b81526004016104b190611cd6565b6035805461ff0019166101001790556040517f71f0e5b62f846a22e0b4d159e516e62fa9c2b8eb570be15f83e67d98a2ee51e090600090a1565b610cf461146c565b610d105760405162461bcd60e51b81526004016104b190611c9f565b600054610100900460ff1680610d29575060005460ff16155b610d8c5760405162461bcd60e51b815260206004820152602e60248201527f496e697469616c697a61626c653a20636f6e747261637420697320616c72656160448201526d191e481a5b9a5d1a585b1a5e995960921b60648201526084016104b1565b600054610100900460ff16158015610dae576000805461ffff19166101011790555b6001600160a01b038316610dfb5760405162461bcd60e51b81526020600482015260146024820152736f4554482061646472657373206973207a65726f60601b60448201526064016104b1565b603a80546001600160a01b038086166001600160a01b031992831617909255603b8054928516929091169190911790556035805461ffff19166101001790556000603681905560378190556801a055690d9db80000603855678ac7230489e80000603955604051908082528060200260200182016040528015610e88578160200160208202803683370190505b508051610e9d91603491602090910190611acb565b508015610eb0576000805461ff00191690555b505050565b603c546001600160a01b0316331480610ed15750610ed161146c565b610eed5760405162461bcd60e51b81526004016104b190611cd6565b6040516001600160a01b03821681527f45a9e715f8779ebeab88d3e8d081fb8b484b7730857e7c4478a95a5b1d8f79489060200160405180910390a16001600160a01b03811615610f98576001600160a01b03811660009081526033602052604090205460ff16610f985760405162461bcd60e51b815260206004820152601560248201527414dd1c985d1959de481b9bdd08185c1c1c9bdd9959605a1b60448201526064016104b1565b603d80546001600160a01b0319166001600160a01b0392909216919091179055565b603c546001600160a01b0316331480610fd65750610fd661146c565b610ff25760405162461bcd60e51b81526004016104b190611cd6565b6001600160a01b03811660009081526033602052604090205460ff1661105a5760405162461bcd60e51b815260206004820152601960248201527f5374726174656779206973206e6f7420737570706f727465640000000000000060448201526064016104b1565b6000819050806001600160a01b031663853828b66040518163ffffffff1660e01b8152600401600060405180830381600087803b15801561109a57600080fd5b505af11580156110ae573d6000803e3d6000fd5b505050505050565b7f44c4d30b2eaad5130ad70c3ba6972730566f3e6359ab83e800d905c61b1c51db546001600160a01b0316336001600160a01b0316146111515760405162461bcd60e51b815260206004820152603060248201527f4f6e6c79207468652070656e64696e6720476f7665726e6f722063616e20636f60448201526f6d706c6574652074686520636c61696d60801b60648201526084016104b1565b61115a336117be565b565b61116461146c565b6111805760405162461bcd60e51b81526004016104b190611c9f565b603e8190556040518181527f95201f9c21f26877223b1ff4073936a6484c35495649e60e55730497aeb60d9390602001610594565b6111bd61146c565b6111d95760405162461bcd60e51b81526004016104b190611c9f565b603c80546001600160a01b0319166001600160a01b0383169081179091556040519081527f869e0abd13cc3a975de7b93be3df1cb2255c802b1cead85963cc79d99f131bee90602001610594565b603c546001600160a01b0316331480611243575061124361146c565b61125f5760405162461bcd60e51b81526004016104b190611cd6565b670de0b6b3a76400008111156112a75760405162461bcd60e51b815260206004820152600d60248201526c496e76616c69642076616c756560981b60448201526064016104b1565b60378190556040518181527f41ecb23a0e7865b25f38c268b7c3012220d822929e9edff07326e89d5bb822b590602001610594565b603c546001600160a01b03163314806112f857506112f861146c565b6113145760405162461bcd60e51b81526004016104b190611cd6565b6035805461ff00191690556040517f891ebab18da80ebeeea06b1b1cede098329c4c008906a98370c2ac7a80b571cb90600090a1565b61135261146c565b61136e5760405162461bcd60e51b81526004016104b190611c9f565b60388190556040518181527f2ec5fb5a3d2703edc461252d92ccd2799c3c74f01d97212b20388207fa17ae4590602001610594565b6113ab61146c565b6113c75760405162461bcd60e51b81526004016104b190611c9f565b60398190556040518181527f39367850377ac04920a9a670f2180e7a94d83b15ad302e59875ec58fd10bd37d90602001610594565b603c546001600160a01b0316331480611418575061141861146c565b6114345760405162461bcd60e51b81526004016104b190611cd6565b6035805460ff191660011790556040517f8cff26a5985614b3d30629cc4ab83824bf115aec971b718d8f2f99562032e97290600090a1565b6000611484600080516020611dc38339815191525490565b6001600160a01b0316336001600160a01b031614905090565b603c546001600160a01b03163314806114b957506114b961146c565b6114d55760405162461bcd60e51b81526004016104b190611cd6565b60005b60345481101561156e576000603482815481106114f7576114f7611dac565b60009182526020822001546040805163429c145b60e11b815290516001600160a01b039092169350839263853828b69260048084019382900301818387803b15801561154257600080fd5b505af1158015611556573d6000803e3d6000fd5b5050505050808061156690611d65565b9150506114d8565b50565b61157961146c565b6115955760405162461bcd60e51b81526004016104b190611c9f565b6115bd817f44c4d30b2eaad5130ad70c3ba6972730566f3e6359ab83e800d905c61b1c51db55565b806001600160a01b03166115dd600080516020611dc38339815191525490565b6001600160a01b03167fa39cc5eb22d0f34d8beaefee8a3f17cc229c1a1d1ef87a5ad47313487b1c4f0d60405160405180910390a350565b61161d61146c565b6116395760405162461bcd60e51b81526004016104b190611c9f565b6103e88111156116955760405162461bcd60e51b815260206004820152602160248201527f52656465656d206665652073686f756c64206e6f74206265206f7665722031306044820152602560f81b60648201526084016104b1565b60368190556040518181527fd6c7508d6658ccee36b7b7d7fd72e5cbaeefb40c64eff24e9ae7470e846304ee90602001610594565b6116d261146c565b6116ee5760405162461bcd60e51b81526004016104b190611c9f565b803b6117485760405162461bcd60e51b8152602060048201526024808201527f6e657720696d706c656d656e746174696f6e206973206e6f74206120636f6e746044820152631c9858dd60e21b60648201526084016104b1565b7fa2bd3d3cf188a41358c8b401076eb59066b09dec5775650c0de4c55187d17bd955565b604080516001600160a01b038416602482015260448082018490528251808303909101815260649091019091526020810180516001600160e01b031663a9059cbb60e01b179052610eb090849061187f565b6001600160a01b0381166118145760405162461bcd60e51b815260206004820152601a60248201527f4e657720476f7665726e6f72206973206164647265737328302900000000000060448201526064016104b1565b806001600160a01b0316611834600080516020611dc38339815191525490565b6001600160a01b03167fc7c0c772add429241571afb3805861fb3cfa2af374534088b76cdb4325a87e9a60405160405180910390a361156e81600080516020611dc383398151915255565b60006118d4826040518060400160405280602081526020017f5361666545524332303a206c6f772d6c6576656c2063616c6c206661696c6564815250856001600160a01b03166119519092919063ffffffff16565b805190915015610eb057808060200190518101906118f29190611c15565b610eb05760405162461bcd60e51b815260206004820152602a60248201527f5361666545524332303a204552433230206f7065726174696f6e20646964206e6044820152691bdd081cdd58d8d9595960b21b60648201526084016104b1565b6060611960848460008561196a565b90505b9392505050565b6060824710156119cb5760405162461bcd60e51b815260206004820152602660248201527f416464726573733a20696e73756666696369656e742062616c616e636520666f6044820152651c8818d85b1b60d21b60648201526084016104b1565b843b611a195760405162461bcd60e51b815260206004820152601d60248201527f416464726573733a2063616c6c20746f206e6f6e2d636f6e747261637400000060448201526064016104b1565b600080866001600160a01b03168587604051611a359190611c50565b60006040518083038185875af1925050503d8060008114611a72576040519150601f19603f3d011682016040523d82523d6000602084013e611a77565b606091505b5091509150611a87828286611a92565b979650505050505050565b60608315611aa1575081611963565b825115611ab15782518084602001fd5b8160405162461bcd60e51b81526004016104b19190611c6c565b828054828255906000526020600020908101928215611b20579160200282015b82811115611b2057825182546001600160a01b0319166001600160a01b03909116178255602090920191600190910190611aeb565b50611b2c929150611b30565b5090565b5b80821115611b2c5760008155600101611b31565b80356001600160a01b0381168114611b5c57600080fd5b919050565b600060208284031215611b7357600080fd5b61196382611b45565b60008060408385031215611b8f57600080fd5b611b9883611b45565b9150611ba660208401611b45565b90509250929050565b600080600060608486031215611bc457600080fd5b611bcd84611b45565b9250611bdb60208501611b45565b9150604084013590509250925092565b60008060408385031215611bfe57600080fd5b611c0783611b45565b946020939093013593505050565b600060208284031215611c2757600080fd5b8151801515811461196357600080fd5b600060208284031215611c4957600080fd5b5035919050565b60008251611c62818460208701611d35565b9190910192915050565b6020815260008251806020840152611c8b816040850160208701611d35565b601f01601f19169190910160400192915050565b6020808252601a908201527f43616c6c6572206973206e6f742074686520476f7665726e6f72000000000000604082015260600190565b60208082526028908201527f43616c6c6572206973206e6f74207468652053747261746567697374206f722060408201526723b7bb32b93737b960c11b606082015260800190565b600082821015611d3057611d30611d80565b500390565b60005b83811015611d50578181015183820152602001611d38565b83811115611d5f576000848401525b50505050565b6000600019821415611d7957611d79611d80565b5060010190565b634e487b7160e01b600052601160045260246000fd5b634e487b7160e01b600052603160045260246000fd5b634e487b7160e01b600052603260045260246000fdfe7bea13895fa79d2831e0a9e28edede30099005a50d652d8957cf8a607ee6ca4aa2646970667358221220bbe11c0261dbc2c9d7647d9a85752d8707011c7d8b99dd6863dbecf9534f596564736f6c634300080700337bea13895fa79d2831e0a9e28edede30099005a50d652d8957cf8a607ee6ca4a",
  "devdoc": {
    "kind": "dev",
    "methods": {
      "approveStrategy(address)": {
        "details": "Add a strategy to the Vault.",
        "params": {
          "_addr": "Address of the strategy to add"
        }
      },
      "claimGovernance()": {
        "details": "Claim Governance of the contract to a new account (`newGovernor`). Can only be called by the new Governor."
      },
      "governor()": {
        "details": "Returns the address of the current Governor."
      },
      "isGovernor()": {
        "details": "Returns true if the caller is the current Governor."
      },
      "pauseCapital()": {
        "details": "Set the deposit paused flag to true to prevent capital movement."
      },
      "pauseRebase()": {
        "details": "Set the deposit paused flag to true to prevent rebasing."
      },
      "reallocate(address,address,uint256)": {
        "params": {
          "_amount": "Amount of oETH to move.",
          "_strategyFromAddress": "Address of Strategy to move assets from.",
          "_strategyToAddress": "Address of Strategy to move assets to."
        }
      },
      "removeStrategy(address)": {
        "details": "Remove a strategy from the Vault.",
        "params": {
          "_addr": "Address of the strategy to remove"
        }
      },
      "setAdminImpl(address)": {
        "details": "set the implementation for the admin, this needs to be in a base class else we cannot set it",
        "params": {
          "newImpl": "address of the implementation"
        }
      },
      "setAutoAllocateThreshold(uint256)": {
        "details": "Sets the minimum amount of OETH in a mint to trigger an automatic allocation of funds afterwords.",
        "params": {
          "_threshold": "OETH amount with 18 fixed decimals."
        }
      },
      "setDefaultStrategy(address)": {
        "details": "Set the default Strategy, i.e. the one to which the asset will be automatically allocated to and withdrawn from",
        "params": {
          "_strategy": "Address of the Strategy"
        }
      },
      "setMaxSupplyDiff(uint256)": {
        "details": "Sets the maximum allowable difference between total supply and backing assets' value."
      },
      "setRebaseThreshold(uint256)": {
        "details": "Set a minimum amount of OETH in a mint or redeem that triggers a rebase",
        "params": {
          "_threshold": "OETH amount with 18 fixed decimals."
        }
      },
      "setRedeemFeeBps(uint256)": {
        "details": "Set a fee in basis points to be charged for a redeem.",
        "params": {
          "_redeemFeeBps": "Basis point fee to be charged"
        }
      },
      "setStrategistAddr(address)": {
        "details": "Set address of Strategist",
        "params": {
          "_address": "Address of Strategist"
        }
      },
      "setTrusteeAddress(address)": {
        "details": "Sets the trusteeAddress that can receive a portion of yield.      Setting to the zero address disables this feature."
      },
      "setTrusteeFeeBps(uint256)": {
        "details": "Sets the TrusteeFeeBps to the percentage of yield that should be      received in basis points."
      },
      "setVaultBuffer(uint256)": {
        "details": "Set a buffer of assets to keep in the Vault to handle most redemptions without needing to spend gas unwinding assets from a Strategy.",
        "params": {
          "_vaultBuffer": "Percentage using 18 decimals. 100% = 1e18."
        }
      },
      "transferGovernance(address)": {
        "details": "Transfers Governance of the contract to a new account (`newGovernor`). Can only be called by the current Governor. Must be claimed for this to complete",
        "params": {
          "_newGovernor": "Address of the new Governor"
        }
      },
      "transferToken(address,uint256)": {
        "details": "Transfer token to governor. Intended for recovering tokens stuck in      contract, i.e. mistaken sends.",
        "params": {
          "_amount": "Amount of the asset to transfer",
          "_asset": "Address for the asset"
        }
      },
      "unpauseCapital()": {
        "details": "Set the deposit paused flag to false to enable capital movement."
      },
      "unpauseRebase()": {
        "details": "Set the deposit paused flag to true to allow rebasing."
      },
      "withdrawAllFromStrategies()": {
        "details": "Withdraws all assets from all the strategies and sends assets to the Vault."
      },
      "withdrawAllFromStrategy(address)": {
        "details": "Withdraws all assets from the strategy and sends assets to the Vault.",
        "params": {
          "_strategyAddr": "Strategy address."
        }
      }
    },
    "version": 1
  },
  "userdoc": {
    "kind": "user",
    "methods": {
      "reallocate(address,address,uint256)": {
        "notice": "Move assets from one Strategy to another"
      }
    },
    "version": 1
  },
  "storageLayout": {
    "storage": [
      {
        "astId": 24492,
        "contract": "contracts/vault/Vault.sol:Vault",
        "label": "initialized",
        "offset": 0,
        "slot": "0",
        "type": "t_bool"
      },
      {
        "astId": 24495,
        "contract": "contracts/vault/Vault.sol:Vault",
        "label": "initializing",
        "offset": 1,
        "slot": "0",
        "type": "t_bool"
      },
      {
        "astId": 24535,
        "contract": "contracts/vault/Vault.sol:Vault",
        "label": "______gap",
        "offset": 0,
        "slot": "1",
        "type": "t_array(t_uint256)50_storage"
      },
      {
        "astId": 27601,
        "contract": "contracts/vault/Vault.sol:Vault",
        "label": "strategies",
        "offset": 0,
        "slot": "51",
        "type": "t_mapping(t_address,t_struct(Strategy)27596_storage)"
      },
      {
        "astId": 27604,
        "contract": "contracts/vault/Vault.sol:Vault",
        "label": "allStrategies",
        "offset": 0,
        "slot": "52",
        "type": "t_array(t_address)dyn_storage"
      },
      {
        "astId": 27607,
        "contract": "contracts/vault/Vault.sol:Vault",
        "label": "rebasePaused",
        "offset": 0,
        "slot": "53",
        "type": "t_bool"
      },
      {
        "astId": 27610,
        "contract": "contracts/vault/Vault.sol:Vault",
        "label": "capitalPaused",
        "offset": 1,
        "slot": "53",
        "type": "t_bool"
      },
      {
        "astId": 27612,
        "contract": "contracts/vault/Vault.sol:Vault",
        "label": "redeemFeeBps",
        "offset": 0,
        "slot": "54",
        "type": "t_uint256"
      },
      {
        "astId": 27614,
        "contract": "contracts/vault/Vault.sol:Vault",
        "label": "vaultBuffer",
        "offset": 0,
        "slot": "55",
        "type": "t_uint256"
      },
      {
        "astId": 27616,
        "contract": "contracts/vault/Vault.sol:Vault",
        "label": "autoAllocateThreshold",
        "offset": 0,
        "slot": "56",
        "type": "t_uint256"
      },
      {
        "astId": 27618,
        "contract": "contracts/vault/Vault.sol:Vault",
        "label": "rebaseThreshold",
        "offset": 0,
        "slot": "57",
        "type": "t_uint256"
      },
      {
        "astId": 27621,
        "contract": "contracts/vault/Vault.sol:Vault",
        "label": "oETH",
        "offset": 0,
        "slot": "58",
        "type": "t_contract(OETH)23133"
      },
      {
        "astId": 27624,
        "contract": "contracts/vault/Vault.sol:Vault",
        "label": "wETH",
        "offset": 0,
        "slot": "59",
        "type": "t_contract(IERC20)623"
      },
      {
        "astId": 27633,
        "contract": "contracts/vault/Vault.sol:Vault",
        "label": "strategistAddr",
        "offset": 0,
        "slot": "60",
        "type": "t_address"
      },
      {
        "astId": 27636,
        "contract": "contracts/vault/Vault.sol:Vault",
        "label": "defaultStrategy",
        "offset": 0,
        "slot": "61",
        "type": "t_contract(IStrategy)5592"
      },
      {
        "astId": 27638,
        "contract": "contracts/vault/Vault.sol:Vault",
        "label": "maxSupplyDiff",
        "offset": 0,
        "slot": "62",
        "type": "t_uint256"
      },
      {
        "astId": 27640,
        "contract": "contracts/vault/Vault.sol:Vault",
        "label": "trusteeAddress",
        "offset": 0,
        "slot": "63",
        "type": "t_address"
      },
      {
        "astId": 27642,
        "contract": "contracts/vault/Vault.sol:Vault",
        "label": "trusteeFeeBps",
        "offset": 0,
        "slot": "64",
        "type": "t_uint256"
      }
    ],
    "types": {
      "t_address": {
        "encoding": "inplace",
        "label": "address",
        "numberOfBytes": "20"
      },
      "t_array(t_address)dyn_storage": {
        "base": "t_address",
        "encoding": "dynamic_array",
        "label": "address[]",
        "numberOfBytes": "32"
      },
      "t_array(t_uint256)50_storage": {
        "base": "t_uint256",
        "encoding": "inplace",
        "label": "uint256[50]",
        "numberOfBytes": "1600"
      },
      "t_bool": {
        "encoding": "inplace",
        "label": "bool",
        "numberOfBytes": "1"
      },
      "t_contract(IERC20)623": {
        "encoding": "inplace",
        "label": "contract IERC20",
        "numberOfBytes": "20"
      },
      "t_contract(IStrategy)5592": {
        "encoding": "inplace",
        "label": "contract IStrategy",
        "numberOfBytes": "20"
      },
      "t_contract(OETH)23133": {
        "encoding": "inplace",
        "label": "contract OETH",
        "numberOfBytes": "20"
      },
      "t_mapping(t_address,t_struct(Strategy)27596_storage)": {
        "encoding": "mapping",
        "key": "t_address",
        "label": "mapping(address => struct VaultStorage.Strategy)",
        "numberOfBytes": "32",
        "value": "t_struct(Strategy)27596_storage"
      },
      "t_struct(Strategy)27596_storage": {
        "encoding": "inplace",
        "label": "struct VaultStorage.Strategy",
        "members": [
          {
            "astId": 27593,
            "contract": "contracts/vault/Vault.sol:Vault",
            "label": "isSupported",
            "offset": 0,
            "slot": "0",
            "type": "t_bool"
          },
          {
            "astId": 27595,
            "contract": "contracts/vault/Vault.sol:Vault",
            "label": "_deprecated",
            "offset": 0,
            "slot": "1",
            "type": "t_uint256"
          }
        ],
        "numberOfBytes": "64"
      },
      "t_uint256": {
        "encoding": "inplace",
        "label": "uint256",
        "numberOfBytes": "32"
      }
    }
  }
}